{
  "abi": [
    {
      "inputs": [
        {
          "internalType": "address",
          "name": "targetERC20",
          "type": "address"
        },
        {
          "internalType": "uint256",
          "name": "_reignTimespan",
          "type": "uint256"
        }
      ],
      "stateMutability": "nonpayable",
      "type": "constructor"
    },
    {
      "anonymous": false,
      "inputs": [
        {
          "indexed": true,
          "internalType": "address",
          "name": "king",
          "type": "address"
        },
        {
          "indexed": true,
          "internalType": "uint256",
          "name": "amount",
          "type": "uint256"
        }
      ],
      "name": "Captured",
      "type": "event"
    },
    {
      "inputs": [
        {
          "internalType": "uint256",
          "name": "amount",
          "type": "uint256"
        }
      ],
      "name": "capture",
      "outputs": [],
      "stateMutability": "payable",
      "type": "function"
    },
    {
      "inputs": [
        {
          "internalType": "address",
          "name": "receiver",
          "type": "address"
        }
      ],
      "name": "claimVictory",
      "outputs": [
        {
          "internalType": "uint256",
          "name": "reward",
          "type": "uint256"
        }
      ],
      "stateMutability": "nonpayable",
      "type": "function"
    },
    {
      "inputs": [],
      "name": "currentAmount",
      "outputs": [
        {
          "internalType": "uint256",
          "name": "",
          "type": "uint256"
        }
      ],
      "stateMutability": "view",
      "type": "function"
    },
    {
      "inputs": [],
      "name": "expires",
      "outputs": [
        {
          "internalType": "uint256",
          "name": "",
          "type": "uint256"
        }
      ],
      "stateMutability": "view",
      "type": "function"
    },
    {
      "inputs": [],
      "name": "getCurrentAmount",
      "outputs": [
        {
          "internalType": "uint256",
          "name": "",
          "type": "uint256"
        }
      ],
      "stateMutability": "view",
      "type": "function"
    },
    {
      "inputs": [],
      "name": "getCurrentKing",
      "outputs": [
        {
          "internalType": "address",
          "name": "",
          "type": "address"
        }
      ],
      "stateMutability": "view",
      "type": "function"
    },
    {
      "inputs": [],
      "name": "getExpires",
      "outputs": [
        {
          "internalType": "uint256",
          "name": "",
          "type": "uint256"
        }
      ],
      "stateMutability": "view",
      "type": "function"
    },
    {
      "inputs": [],
      "name": "getTokenAddress",
      "outputs": [
        {
          "internalType": "address",
          "name": "",
          "type": "address"
        }
      ],
      "stateMutability": "view",
      "type": "function"
    },
    {
      "inputs": [],
      "name": "king",
      "outputs": [
        {
          "internalType": "address",
          "name": "",
          "type": "address"
        }
      ],
      "stateMutability": "view",
      "type": "function"
    },
    {
      "inputs": [],
      "name": "reignTimespan",
      "outputs": [
        {
          "internalType": "uint256",
          "name": "",
          "type": "uint256"
        }
      ],
      "stateMutability": "view",
      "type": "function"
    },
    {
      "inputs": [],
      "name": "tokenAddress",
      "outputs": [
        {
          "internalType": "address",
          "name": "",
          "type": "address"
        }
      ],
      "stateMutability": "view",
      "type": "function"
    }
  ],
  "bytecode": {
    "object": "0x608060405260001960025534801561001657600080fd5b506040516106ab3803806106ab8339810160408190526100359161005e565b600480546001600160a01b0319166001600160a01b039390931692909217909155600155610098565b6000806040838503121561007157600080fd5b82516001600160a01b038116811461008857600080fd5b6020939093015192949293505050565b610604806100a76000396000f3fe60806040526004361061009c5760003560e01c8063af6d891611610064578063af6d891614610151578063b1cb0db31461016f578063b5c3e81a14610185578063cc181ca81461019a578063e191e58d146101ba578063f441b1c8146101cf57600080fd5b80630b97bb6d146100a157806310fe9ae8146100ca57806338ba3a17146100fc57806351e58d50146101115780639d76ea5814610131575b600080fd5b3480156100ad57600080fd5b506100b760015481565b6040519081526020015b60405180910390f35b3480156100d657600080fd5b506004546001600160a01b03165b6040516001600160a01b0390911681526020016100c1565b34801561010857600080fd5b506000546100b7565b34801561011d57600080fd5b506100b761012c36600461053d565b6101e5565b34801561013d57600080fd5b506004546100e4906001600160a01b031681565b34801561015d57600080fd5b506003546001600160a01b03166100e4565b34801561017b57600080fd5b506100b760025481565b61019861019336600461056d565b610336565b005b3480156101a657600080fd5b506003546100e4906001600160a01b031681565b3480156101c657600080fd5b506002546100b7565b3480156101db57600080fd5b506100b760005481565b6003546000906001600160a01b031633146102475760405162461bcd60e51b815260206004820152601d60248201527f6d757374206265206b696e6720746f20636c61696d20766963746f727900000060448201526064015b60405180910390fd5b6002544210156102995760405162461bcd60e51b815260206004820152601760248201527f68696c6c206861736e2774206578706972656420796574000000000000000000604482015260640161023e565b60008054908055600019600255600380546001600160a01b03191690556004805460405163a9059cbb60e01b81526001600160a01b03868116938201939093526024810184905291169063a9059cbb906044016020604051808303816000875af115801561030b573d6000803e3d6000fd5b505050506040513d601f19601f8201168201806040525081019061032f9190610586565b5092915050565b60005481116103965760405162461bcd60e51b815260206004820152602660248201527f6d75737420636f6e74726962757465206d6f7265207468616e2063757272656e60448201526574206b696e6760d01b606482015260840161023e565b60025442106103dc5760405162461bcd60e51b81526020600482015260126024820152713937bab732103430b9903132b2b7103bb7b760711b604482015260640161023e565b6000805490829055600380546001600160a01b0319163317905560015461040390426105a8565b600255600480546040516323b872dd60e01b81523392810192909252306024830152604482018490526001600160a01b0316906323b872dd906064016020604051808303816000875af115801561045e573d6000803e3d6000fd5b505050506040513d601f19601f820116820180604052508101906104829190610586565b508015610501576004805460405163a9059cbb60e01b81523392810192909252602482018390526001600160a01b03169063a9059cbb906044016020604051808303816000875af11580156104db573d6000803e3d6000fd5b505050506040513d601f19601f820116820180604052508101906104ff9190610586565b505b60035460405183916001600160a01b0316907fed6d51626af538089b93e1764d7800e758f15a608274fca533e6414712d0a76490600090a35050565b60006020828403121561054f57600080fd5b81356001600160a01b038116811461056657600080fd5b9392505050565b60006020828403121561057f57600080fd5b5035919050565b60006020828403121561059857600080fd5b8151801515811461056657600080fd5b600082198211156105c957634e487b7160e01b600052601160045260246000fd5b50019056fea2646970667358221220db87f91abd66279ce91608372ab468b95b37623fb6fa8e42fc4f232ec1b0db4564736f6c634300080c0033",
    "linkReferences": {}
  }
}